:100000000C9434000C9451000C9451000C94510049
:100010000C9451000C9451000C9451000C9451001C
:100020000C9451000C9451000C9451000C9451000C
:100030000C9451000C9451000C9451000C945100FC
:100040000C9451000C9451000C948E000C945100AF
:100050000C9451000C9451000C9451000C945100DC
:100060000C9451000C94510011241FBECFEFD8E026
:10007000DEBFCDBF11E0A0E0B1E0E4E6F1E002C0F8
:1000800005900D92A030B107D9F711E0A0E0B1E0E2
:1000900001C01D92A238B107E1F70E9476000C94CE
:1000A000B0000C940000809101019091000189172B
:1000B00031F0E2E0F1E0E80FF11D8081089580E089
:1000C00008959091010180910001981769F0E2E094
:1000D000F1E0E90FF11D80819F5F90930101992369
:1000E00024F410920101089580E008951092C50053
:1000F00087E68093C40080E98093C10086E0809306
:10010000C20081E084B978940E946100813311F4C7
:10011000289AFACF8033C1F72898F6CF1F920F9212
:100120000FB60F9211248F939F93EF93FF938091BB
:1001300000019091C600E2E0F1E0E80FF11D90832C
:100140008F5F80930001882314F410920001FF91C7
:10015000EF919F918F910F900FBE0F901F90189568
:04016000F894FFCF41
:00000001FF
