:100000000C9434000C9451000C9451000C94510049
:100010000C9451000C9451000C9451000C9451001C
:100020000C9451000C9451000C9451000C9451000C
:100030000C9451000C9451000C9451000C945100FC
:100040000C9453000C9451000C9451000C945100EA
:100050000C9451000C9451000C9451000C945100DC
:100060000C9451000C94510011241FBECFEFD8E026
:10007000DEBFCDBF11E0A0E0B1E0EAE0F1E002C0F8
:1000800005900D92A030B107D9F711E0A0E0B1E0E2
:1000900001C01D92A230B107E1F70E9479000C94D3
:1000A00083000C9400001F920F920FB60F92112440
:1000B0008F939F93809100019091010101969093FD
:1000C0000101809300018091000190910101813E26
:1000D000910540F0109201011092000195B180E26B
:1000E000892785B99F918F910F900FBE0F901F9018
:1000F000189580E284B984E085BD81E085BB80935A
:0A0100006E007894FFCFF894FFCF53
:00000001FF
