:100000000C9434000C9451000C9451000C94510049
:100010000C9451000C9451000C9451000C9451001C
:100020000C9451000C9451000C9451000C9451000C
:100030000C9451000C9451000C9451000C945100FC
:100040000C9451000C9451000C9451000C945100EC
:100050000C9451000C9451000C9451000C945100DC
:100060000C9451000C94510011241FBECFEFD8E026
:10007000DEBFCDBF11E0A0E0B1E0EEEDF0E002C0E8
:1000800005900D92A030B107D9F711E0A0E0B1E0E2
:1000900001C01D92A030B107E1F70E9453000C94FB
:1000A0006D000C940000259A259814C02D9A8FEFAE
:1000B00093EDA0E381509040A040E1F700C0000024
:1000C0002D988FEF93EDA0E381509040A040E1F791
:0E00D00000C000001C9BFECFE9CFF894FFCFCC
:00000001FF
