:100000000C9434000C9451000C9451000C94510049
:100010000C9451000C9451000C9451000C9451001C
:100020000C9451000C9451000C9451000C9451000C
:100030000C9451000C9451000C9451000C945100FC
:100040000C9451000C9451000C9453000C945100EA
:100050000C9451000C9451000C9451000C945100DC
:100060000C9451000C94510011241FBECFEFD8E026
:10007000DEBFCDBF11E0A0E0B1E0E2EAF1E002C0F6
:1000800005900D92A030B107D9F711E0A0E0B1E0E2
:1000900001C01D92A230B107E1F70E9493000C94B9
:1000A000CF000C9400001F920F920FB60F921124F4
:1000B0008F938091C6008093010181E080930001BD
:1000C0008F910F900FBE0F901F90189587E6809329
:1000D000C4001092C50088E98093C100089581E4AE
:1000E00080937C0087EC80937A000895EAE7F0E043
:1000F000808186FDFDCF80917800909179000895F0
:10010000E0ECF0E0908195FFFDCF8093C60008956C
:10011000E0ECF0E080818823ECF78091C600089540
:100120008FEF84B908950E946600789489E490E086
:100130000E9480008FE490E00E94800084E590E0BF
:100140000E9480008DE290E00E94800081E490E0B7
:100150000E94800082E590E00E9480008DE490E0A3
:100160000E94800089E590E00E9480000E946F005C
:10017000C6ECD0E080910001882339F08091010124
:1001800090E00E948000109200010E94760083336C
:10019000910510F02D9A01C02D988883EBCFF8942B
:0201A000FFCF8F
:00000001FF
