:100000000C9434000C9451000C9451000C94510049
:100010000C9451000C9451000C9451000C9451001C
:100020000C9451000C9451000C9451000C9451000C
:100030000C9451000C9451000C9451000C945100FC
:100040000C9451000C9451000C94C7000C94510076
:100050000C9451000C9451000C9451000C945100DC
:100060000C9451000C94510011241FBECFEFD8E026
:10007000DEBFCDBF11E0A0E0B1E0E8EFF1E002C0EB
:1000800005900D92A830B107D9F711E0A8E0B1E0D2
:1000900001C01D92AC38B107E1F70E949F000C949B
:1000A000FA000C9400009093C5008093C40088E986
:1000B0008093C10086E08093C2000895E0ECF0E0F8
:1000C00080818823ECF78091C6000895E0ECF0E091
:1000D000908195FFFDCF8093C600089580910A011D
:1000E00090910B012091080130910901821793072B
:1000F00029F0845F9E4FFC018081089580E008957F
:1001000020910A0130910B01809108019091090121
:100110002817390791F0F901E45FFE4F80812F5FC6
:100120003F4F30930B0120930A012038310530F006
:1001300010920B0110920A01089580E0089580E268
:1001400084B9789483E390E00E94530000E011E0CA
:100150000F2EF3E0EF2EF1E0FF2EF02D0E94800035
:10016000C82F90E0B8010E94F100282F392F2115E7
:10017000310509F42D9A8C2F90E0B7010E94F1000F
:10018000282F392F2115310549F72D98E7CF1F92D8
:100190000F920FB60F9211242F938F939F93EF938B
:1001A000FF9380910801909109012091C600FC0104
:1001B000E45FFE4F2083019690930901809308012C
:1001C0008038910520F01092090110920801FF91EA
:1001D000EF919F918F912F910F900FBE0F901F90D5
:1001E0001895FB01DC018D91019080190110D9F364
:0801F000990B0895F894FFCF6C
:0801F8006F6E006F66660000E7
:00000001FF
