:100000000C9434000C9451000C9451000C94510049
:100010000C9451000C9451000C9451000C9451001C
:100020000C9451000C9451000C9451000C9451000C
:100030000C9451000C9451000C9451000C945100FC
:100040000C9451000C9451000C9453000C945100EA
:100050000C9451000C9451000C9451000C945100DC
:100060000C9451000C94510011241FBECFEFD8E026
:10007000DEBFCDBF11E0A0E0B1E0EEE6F1E002C0EE
:1000800005900D92A030B107D9F711E0A0E0B1E0E2
:1000900001C01D92A230B107E1F70E948D000C94BF
:1000A000B5000C9400001F920F920FB60F9211240E
:1000B0008F938091C600809301018091010181336B
:1000C00009F42D9A80910101803309F42D9881E083
:1000D000809300018F910F900FBE0F901F90189585
:1000E00083E38093C4001092C50088E98093C10027
:1000F0000895E0ECF0E0908195FFFDCF8093C6007D
:100100000895E0ECF0E080818823ECF78091C60050
:1001100008958FEF84B915B808950E9489000E9450
:100120007000789489E40E9479008FE40E9479003D
:1001300084E50E9479008DE20E94790081E40E94AA
:10014000790082E50E9479008DE40E94790089E5BA
:100150000E947900809100018823E1F380910101E0
:0E0160000E94790010920001F5CFF894FFCFB5
:00000001FF
