:100000000C9434000C9451000C9451000C94510049
:100010000C9451000C9451000C9451000C9451001C
:100020000C9451000C9451000C9451000C9451000C
:100030000C9451000C9451000C9451000C945100FC
:100040000C9451000C9451000C9453000C945100EA
:100050000C9451000C9451000C9451000C945100DC
:100060000C9451000C94510011241FBECFEFD8E026
:10007000DEBFCDBF11E0A0E0B1E0E8E6F1E002C0F4
:1000800005900D92A030B107D9F711E0A0E0B1E0E2
:1000900001C01D92A230B107E1F70E9483000C94C9
:1000A000B2000C9400001F920F920FB60F92112411
:1000B0008F938091C6008093010181E080930001BD
:1000C0008F910F900FBE0F901F90189583E3809330
:1000D000C4001092C50088E98093C1000895E0EC47
:1000E000F0E0908195FFFDCF8093C6000895E0EC8D
:1000F000F0E080818823ECF78091C60008958FEFAF
:1001000087B988B908950E946600789489E40E94AE
:100110006F008FE40E946F0084E50E946F008DE203
:100120000E946F0081E40E946F0082E50E946F00D0
:100130008DE40E946F0089E50E946F00259AC0E25D
:1001400080910101813419F485B18C2785B98091A2
:1001500000018823A9F3809101010E946F00109291
:080160000001EECFF894FFCF7F
:00000001FF
