:100000000C9434000C9451000C9451000C94510049
:100010000C9451000C9451000C9451000C9451001C
:100020000C9451000C9451000C9451000C9451000C
:100030000C9451000C9451000C9451000C945100FC
:100040000C9451000C9451000C9451000C945100EC
:100050000C9451000C9453000C9451000C945100DA
:100060000C9451000C94510011241FBECFEFD8E026
:10007000DEBFCDBF11E0A0E0B1E0EAE2F1E002C0F6
:1000800005900D92A030B107D9F711E0A0E0B1E0E2
:1000900001C01D92A030B107E1F70E948E000C94C0
:1000A00093000C9400001F920F920FB60F92112430
:1000B0008F939F93AF93BF932D9A8FEF93EDA0E310
:1000C00081509040A040E1F700C000002D988FEFD4
:1000D00093EDA0E381509040A040E1F700C0000004
:1000E000BF91AF919F918F910F900FBE0F901F9076
:1000F000189581E480937C008FEC80937A0078944B
:100100000895EAE7F0E0808186FDFDCF80917800D8
:100110009091790008958FEF84B908950E948B0023
:0A0120000E947900FFCFF894FFCF92
:00000001FF
