:100000000C942A000C9447000C9447000C94470071
:100010000C9447000C9447000C9447000C94470044
:100020000C9447000C9447000C9447000C94470034
:100030000C9447000C9447000C9447000C94470024
:100040000C9447000C9447000C9447000C94470014
:100050000C94470011241FBECFE5D8E0DEBFCDBF12
:1000600010E0A0E6B0E0E0EFF0E002C005900D92F5
:10007000A036B107D9F710E0A0E6B0E001C01D92AC
:10008000A036B107E1F70E9449000C9476000C9469
:1000900000008FEF81BB81E090E069E070E0E0E07C
:1000A000F1E0A1E0B0E009C082BBC7EAD1E6219748
:1000B000F1F700C00000880F991FD1E081309D0743
:1000C0009CF39B01AF0142BB87EA91E60197F1F7F0
:1000D00000C00000CA0199230CF40196AC015595AB
:1000E00047952150304079F7CD01E7CFF894FFCF05
:00000001FF
