:100000000C9434000C9451000C9451000C94510049
:100010000C9451000C9451000C9451000C9451001C
:100020000C9451000C9451000C9451000C9451000C
:100030000C9451000C9451000C9451000C945100FC
:100040000C9451000C9451000C9451000C945100EC
:100050000C9451000C9451000C9451000C945100DC
:100060000C9451000C94510011241FBECFEFD8E026
:10007000DEBFCDBF11E0A0E0B1E0ECE0F1E002C0F6
:1000800005900D92A030B107D9F711E0A0E0B1E0E2
:1000900001C01D92A030B107E1F70E946E000C94E0
:1000A00084000C9400009093C5008093C40088E104
:1000B0008093C10086E08093C2000895E0ECF0E0F8
:1000C00080818823ECF78091C6000895E0ECF0E091
:1000D000908195FFFDCF8093C60008958FEF84B97E
:1000E00083E390E00E9453000E945E00813319F484
:1000F0002D9A0E9466000E945E008033A9F72D9819
:0C0100008FE40E946600F0CFF894FFCF5F
:00000001FF
